:020000040800F2
:1000000000200020FD0C0008490D0008490D0008E3
:1000100000000000000000000000000000000000E0
:10002000000000000000000000000000490D000872
:100030000000000000000000490D0008259C000899
:10004000490D0008490D0008490D0008490D000838
:10005000490D0008490D0008490D0008490D000828
:10006000490D0008490D0008490D0008490D000818
:10007000490D0008490D0008490D0008490D000808
:10008000490D0008490D000800000000490D000856
:10009000490D0008490D0008490D0008490D0008E8
:1000A00039970008490D0008490D0008490D00085E
:1000B000490D000800000000490D00080000000084
:0400C0005FF808F1EC
:1000C80010B5064C2378002B07D1054B002B02D026
:1000D800044800E000BF0123237010BD6800002021
:1000E80000000000CCE9000808B5084B002B03D03D
:1000F8000748084900E000BF07480368002B03D001
:10010800064B002B00D0984708BDC04600000000F1
:10011800CCE900086C000020680000200000000006
:1001280002B4714649084900095C49008E4402BC82
:100138007047C046002934D00123002210B48842F9
:100148002CD301242407A14204D2814202D20901FE
:100158001B01F8E7E400A14204D2814202D249001F
:100168005B00F8E7884201D3401A1A434C08A042C2
:1001780002D3001B5C0822438C08A04202D3001B58
:100188009C082243CC08A04202D3001BDC0822436F
:10019800002803D01B0901D00909E3E7101C10BC93
:1001A8007047002801D00020C04307B4024802A1CC
:1001B8004018029003BDC046D90000000029F0D0C5
:1001C80003B5FFF7B9FF0EBC4243891A1847C0466A
:1001D800002941D010B4041C4C40A446012300223D
:1001E800002900D54942002800D5404288422CD336
:1001F80001242407A14204D2814202D209011B0131
:10020800F8E7E400A14204D2814202D249005B002F
:10021800F8E7884201D3401A1A434C08A04202D397
:10022800001B5C0822438C08A04202D3001B9C08D8
:100238002243CC08A04202D3001BDC08224300283A
:1002480003D01B0901D00909E3E7101C6446002C00
:1002580000D5404210BC7047002806D003DB0020C0
:10026800C043400801E08020000607B4024802A10C
:100278004018029003BDC046190000000029EBD0C9
:1002880003B5FFF7A7FF0EBC4243891A1847C046BB
:100298007047C04673B5041C022949D0102902D002
:1002A800012950D102E0012303764CE0436900267E
:1002B80006760568186809F092FDEB682A68D0543C
:1002C8006A6801339A1A511E8A4152421340EB6000
:1002D800AB685B005B08AB6023689A680192019980
:1002E800019A520052080192D868019A904204D1AA
:1002F800321CB1420DDA5A680BE0D968019A914272
:1003080004D95A68DB6801998A1801E0019ADB6808
:10031800D21A55425541EDB2218960682A1C09F06C
:1003280000FD002D0FD0236872B601221A740AE06E
:10033800037E002B07D0BFF34F8F034A034BDA60CD
:10034800BFF34F8FFEE773BD0400FA0500ED00E030
:10035800034B1A6880181A688242FCD37047C0465B
:1003680034010020F8B5051C102000F0A0FC5F2225
:1003780002724C4B0822002420278272BC2247724A
:100388000470C472436092009B5C1026037328605B
:10039800102000F08CFC444B60220272BE2247728F
:1003A80086720470C472436092009B5C0373686039
:1003B800301C00F07CFC8F2202723C4B0F228272B0
:1003C8008E2247720470C4724360D2009B5C037330
:1003D800A860301C00F06BFC5F220272344B0C22C8
:1003E8008272BC2247720470C472436092009B5CA4
:1003F8000373E860301C00F05AFC5F2202722D4B38
:100408000C228272BC2247720470C472436092004C
:100418009B5C03732861301C00F049FC5E22027269
:10042800254B0B228272BA2247720470C472436051
:1004380092009B5C03736861301C00F038FC5F22FB
:1004480002721E4B0D228272BC2247720470C47263
:10045800436092009B5C0373A861301C00F027FC8A
:1004680060220272164B0E228272BE2247720470FC
:10047800C472436092009B5C0373E861301C00F017
:1004880016FC5F2202720A2282720E4B0122C2728D
:10049800BC2247720470436092009B5C037328621D
:1004A800281CF8BDB4A700089CB000084CB7000889
:1004B80030C3000824CD000898D1000804D60008ED
:1004C80000DE0008C4E5000830B5436802688468A7
:1004D8008589C089216018601D60156030BD30B500
:1004E80043680268042580680224016015601C6066
:1004F800146030BD70B5818B041C002905D0002222
:1005080083698283186809F061FC6569002D05D04C
:100518002E68281C09F060FE351CF7E7291C656168
:10052800206809F049FC8020291CC00309F0C8FC98
:10053800201C70BDF0B5031C02C3041C23CA23C3CE
:100548001268002591B01A6020206561257600F0B8
:10055800AEFB3D4B0127061C036007718020C003DA
:10056800391C09F0ADFC0322131C0095019537488E
:100578004021029709F094F80322131C0095019575
:1005880032488021029709F08BF880235B010A9397
:1005980070230D932E4B306809A909930C950B9580
:1005A8000E950F9509F0D6FB3068391C09F004FC4C
:1005B800F5603561F577B577B5607561B583321C3F
:1005C800244B65690832B6611A60AE4208D0002D26
:1005D80005D0281CFFF78EFF281C00F072FB66610F
:1005E8001D4B0AAA07930023089307A96669A0C9A7
:1005F800A0C20B9D0A9F72690595002A02D001339B
:100608001268FAE7002B03D1059DF7603561B460E5
:10061800102009F0D7FD051E06D1104B1B68002BD2
:1006280000D1FEE79847F3E7011D0C2000F043FBDB
:100638004760059F0023876004602B60706928600D
:10064800201C756111B0F0BD00580040001400482E
:10065800130F42B02C0100209D02000884000020E6
:1006680070B5041CC068151CFFF72EFF02262A6807
:10067800E0681178FFF733FF2B68E0685978FFF7D7
:100688002EFF2B68E068D9789B7809011943FFF79A
:1006980026FF2B68E06859791B7909011943FFF790
:1006A8001EFF2A68E0689179FFF719FF2B68E06858
:1006B800197ADB7909011943FFF711FF2B68E06804
:1006C800997A5B7A09011943FFF709FF2B68E068FB
:1006D800D97AFFF704FF2A68013E117BE068F6B279
:1006E800FFF7FDFE002EC2D170BD38B5151C041CE5
:1006F800FFF7EAFE291C201CFFF7F1FE38BDF7B50D
:10070800009308AB161C0F1C0022995E3A12041CB9
:1007180092B2019100682A21FFF7E7FFFF25391CF3
:1007280029402068FFF7DBFE009B2068191289B278
:10073800FFF7D5FE009920682940FFF7D0FE321256
:1007480092B220682B21FFF7D0FF311C2940206886
:10075800FFF7C5FE019A2068111289B2FFF7BFFEA4
:10076800019920682940FFF7BAFEF7BD10B5C021EE
:10077800041CFFF7A9FE201C0821FFF7B0FE201C6F
:100788009F21FFF7ACFE201C0021FFF7A8FE201CCC
:100798000021FFF7A4FE201C0221FFF7A0FE201C69
:1007A8000021FFF79CFE201C0121FFF798FE201C6A
:1007B800D021FFF789FE201C0021FFF790FE201CA6
:1007C8005521FFF78CFE201CC021FFF788FE201C56
:1007D8008F21FFF784FE10BD30B5036804248568B7
:1007E8002A601C60426804690220282952D31060DC
:1007F8001860106018601060186010601860106051
:100808001860106018601060186010601860106040
:100818001860106018601060186010601860106030
:100828001860106018601060186010601860106020
:100838001860106018601060186010601860106010
:100848001860106018601060186010601860106000
:1008580018601060186010601860106018601060F0
:1008680018601060186010601860106018601060E0
:1008780018601060186010601860106018601060D0
:1008880018601060186010601860106018602839CF
:100898002829ACD2294C8900641A013420471060F9
:1008A80018601060186010601860106018601060A0
:1008B8001860106018601060186010601860106090
:1008C8001860106018601060186010601860106080
:1008D8001860106018601060186010601860106070
:1008E8001860106018601060186010601860106060
:1008F8001860106018601060186010601860106050
:10090800186010601860106018601060186010603F
:10091800186010601860106018601060186010602F
:10092800186010601860106018601060186010601F
:100938001860106018601060186030BD4209000827
:1009480037B5041C0A20FFF703FD90200121C005DC
:1009580009F0E3F90520FFF7FBFC90200121C00511
:1009680009F0DDF93220FFF7F3FC90200121C005E2
:1009780009F0D3F93220FFF7EBFCE068B021FFF76C
:10098800A3FDE0680421FFF7AAFD237A002B13D00A
:10099800E068B921FFF798FDE0680121FFF79FFDA6
:1009A800E0680021FFF79BFDE0680321FFF797FD52
:1009B800E0681821FFF793FD1121E068FFF784FD37
:1009C8007820FFF7C5FCE068FFF7D0FEE068132148
:1009D800FFF77AFD251C60683621E022FFF785FEC7
:1009E80001CD3A210522FFF780FE68230021FF335D
:1009F800281C0A1C0093094BFFF781FE20682C2154
:100A0800FFF762FDE121206800228902FFF7E4FE7A
:100A1800E0682921FFF758FD37BDC0467F02000076
:100A2800F0B5041C8BB00C30FFF79CFC142000F0D0
:100A38003EF90423C381022383813E4B0025436092
:100A48003D4B012703603D4B061C83603C493D48F4
:100A58002A1C03230095019708F0C4FD90202A1C46
:100A68000323C00507210095019708F0BBFD9020DE
:100A78000221C00509F051F92660202000F017F97D
:100A88002368061C03604360C36007720777FFF79B
:100A980057FF66600D26321C2B4906A809F0A6FBF5
:100AA800301C00F00AF9321C06A90496039009F0DC
:100AB8009DFB6668C821301C03AAFFF7D1FD301CD6
:100AC800C92103AAFFF7CCFD03AA301CCA21FFF7EE
:100AD800C7FD2068B321FFF7F7FC20688021FFF7E6
:100AE800FEFC80212068FFF7FAFC082000F0DFF800
:100AF8002368666843606823FF3305802A1CA0606A
:100B0800291C7582301D0093104BFFF7F8FD3068E3
:100B18002C21FFF7D9FCE1213068728A8902FFF79E
:100B28005BFE0398A84201D000F0CFF8201C0BB060
:100B3800F0BDC046280000481800004814040048CA
:100B4800FFFF00000004004864A300087F020000C3
:100B5800F0B58024B3B0E40009F03AF812A8FFF722
:100B68005FFF201C00F0A9F8802306908020002653
:100B78001B0680020121079408930996C02509F0F5
:100B880087F990201EACC005ED0031AB0BA920649D
:100B98006464A0641D8003234B7101230B718E7163
:100BA800CE710B9509F07EF8616C331C2A1C1A4132
:100BB800D00702D59A002FA888500133102BF5D101
:100BC800626A80239B005381526806A9049205AA91
:100BD8001380A26A8023DB00538152680BA802921B
:100BE80003AA138002AAFFF7A5FC12AA0BA902AB5D
:100BF800201C02F061FE109BFE219B69FE271868ED
:100C080009F008F9109D2749AB8B274A3B43AB8372
:100C1800AB7F01A81160012618220270437086700C
:100C280009F0FAF8AB69321C1868391C09F0CEF8DB
:100C3800109B311C186809F0BFF8201C07F00CFB4A
:100C48002569002D0DD0A86A00F03BF8686A00F00D
:100C580038F880204002002109F026F9281C00F00D
:100C680030F8E468002C0DD0A06A00F02AF8606A19
:100C780000F027F880200001002109F015F9201C58
:100C880000F01FF8109C002C05D0201CFFF732FC48
:100C9800201C00F016F8069800F013F8002033B076
:100CA800F0BDC0463997000830010020FEE708B5BE
:100CB80009F088FA08BD081C704708B509F082FADF
:100CC80008BD08B509F088FA08BD08B509F084FA26
:100CD80008BD0000054B1A68002A01D1044A1A60B1
:100CE8001A6810181860101C7047C0468800002049
:100CF800440100200C488546002103E00B4B5B585B
:100D0800435004310A480B4B42189A42F6D30A4A18
:100D180002E0002313600432084B9A42F9D300F032
:100D280011F8FFF715FFFEE700200020ECE90008A6
:100D38000000002068000020680000204401002016
:100D4800FEE70000244B0122196811431960586816
:100D58002249014059601868214901401960186802
:100D680020490140196058681F4901405960D96AF3
:100D78000F208143D962186B1C4901401963596BD4
:100D88009143002259639A60194A112111605A68E7
:100D98005A605A685A605968164A0A405A6059682F
:100DA800A02292030A435A601968802252040A4317
:100DB8001A601968084A8801FBD5516803208143E5
:100DC8005160516802200143516059680C220A4061
:100DD800082AFAD17047C046001002400CB8FFF844
:100DE800FFFFF6FEFFFFFBFFFFFFC0FFACFEFFFFAC
:100DF80000200240FF7FC0FF014B03607047C046E0
:100E080010A4000838B5051C0C1E06D02B68281C39
:100E1800DB68013C9847002CF8D1012038BDC0465A
:100E2800002070470020704738B5051C0C1C06E0F0
:100E38002B68281CDB689847013C002803DB002C42
:100E4800F6D1012038BD0020FCE7C046C2239B0034
:100E5800C058431E9841C0B27047C0460020704732
:100E680000207047014B03607047C04610A400087B
:100E780010B5034B041C0360FFF723FF201C10BDB3
:100E880010A4000810B5034B041C0360FFF719FFFA
:100E9800201C10BD10A40008F0B5C2239B00C35845
:100EA80083B0041C002B00D16BE0C4229200825C4A
:100EB800002A51D1C321890062585D1EC2239B00BC
:100EC800E550531C6350A218167A2F4A93423FD913
:100ED800002D3DD0954201D9C025AD00C922920010
:100EE800A318221C08329A601D61C9239B00E3588D
:100EF80000211F68381C08F0B7FECA239B00E118C0
:100F0800381C08F093FE381C012108F0ADFED922E8
:100F18009200A3186A4607329A601D61D9239B0084
:100F2800E35800211D68281C08F09EFEDA239B0068
:100F3800E118281C08F07AFE281C012108F094FE0C
:100F4800C42301229B00E254C32300229B00E250E9
:100F5800301C00B203B0F0BDC52292008518686845
:100F680008F090FE0028FAD0C6239B00E05808F04D
:100F780093FEC4239B000022E254C2239B00E35843
:100F880098E70248E5E7C046FF020000FFFF0000BF
:100F980038B51A4B041C0360C4239B00C35C002BA8
:100FA80019D1E5239B00E3585868198908F0B5FE64
:100FB800134B65682360002D0BD02868002108F0CA
:100FC800C3FF80204001002108F06EFF281CFFF7B6
:100FD80078FE201C38BDC5239B00C518686808F03A
:100FE80051FE0028FAD0C6239B00E05808F054FEB2
:100FF800C42300229B00E254D3E7C04650A4000853
:1010080010A40008F0B55F4656464D464446F0B475
:101018009A460F1C0023514685B0041C151C0B6012
:1010280000D18FE0C2239B00C358002B00D189E078
:10103800C4239B00C52298469200C62312189B0021
:1010480091469B466AE0C3239B00E158C0239B005E
:101058005B1A2E1E9E4200D91E1C0831321C6118D4
:10106800381C09F0C3F85246126851469319C32236
:101078000B609200A158BF197318A350C2229200A6
:10108800A158AD1B8E1BA650324A93423FD9002E61
:101098003DD0964201D9C026B600C9229200A318B5
:1010A800221C08329A601E61C9239B00E358002164
:1010B8001B68181C019308F0D7FDCA239B00E11890
:1010C800019808F0B3FD0198012108F0CDFDD92160
:1010D80089006A4663180F329A601E61D9239B0003
:1010E800E35800211E68301C08F0BEFDDA22920089
:1010F800A118301C08F09AFD0121301C08F0B4FD3D
:10110800012341466354C32300229B00E250002D73
:1011180018D0C2239B00E358002B13D04146635CD0
:10112800002B90D04A46506808F0ACFD0028F9D052
:101138005B46E358181C009308F0AEFD00234146B7
:10114800635480E7012005B03CBC90469946A2460E
:10115800AB46F0BDFF02000082B0436805E0D968E5
:10116800019A8A1A5968914216D29A68019201988E
:10117800019A520052080192D968019A91420FD0FF
:10118800D968019A9142EAD85A680199D8688218B0
:10119800521A59689142E8D3531E9A41D0B205E0D9
:1011A800002801DB5A68DDE75B68002002B0704761
:1011B80038B51B4B041C0360C4239B00C35C002B85
:1011C8001CD1E5239B00E3585868198908F0A5FD50
:1011D800144B65682360002D0BD02868002108F0A7
:1011E800B3FE80204001002108F05EFE281CFFF7B6
:1011F80068FD201CFFF765FD201C38BDC5239B003A
:10120800C518686808F03EFD0028FAD0C6239B0080
:10121800E05808F041FDC42300229B00E254D0E7C7
:1012280050A4000810A4000810B5836882B0002BF1
:101238005DD0013B8360436805E0D968009A8A1A4B
:101248005968914216D29A6800920098009A520002
:1012580052080092D968009A914220D0D968009A21
:101268009142EAD85A680099D8688218521A59687F
:101278009142E8D3002AE6D09A68196852005208C9
:10128800885C596801328A420DD0802109060A43D8
:101298009A601A7C002A0CD100B202B010BD5A68BC
:1012A8000028CDDACFE7802212069A601A7C002A3D
:1012B800F2D09A680192019C019A52005208019258
:1012C800D968019A914214D0D968019A914208D8F4
:1012D8000199DA688A1A002ADED000221A7462B6E6
:1012E800DAE75A68D968019CA218521AF3E703484A
:1012F800D2E7002CD0DA5A68EDE7C046FFFF0000BD
:1013080030B5846883B0002C48D0A24244D81A6013
:101318008468A21A82601C68426805E0D068009B55
:10132800C31A5068984218D293680093009D009B96
:101338005B005B080093D068009B984209D0D06896
:10134800009B9842EAD853680098D568EB181B1A96
:10135800E7E75368002DE4DA00239C42E4D8936859
:101368005B005B08002C0DD00C191068C05C0133C1
:10137800087050680131181A451EA84140420340C0
:10138800A142F2D1802109060B439360137C002B04
:1013980006D1012003B030BD221CB8E71C60F8E775
:1013A800936801930198019B5B005B080193D168E6
:1013B800019B99420CD0D168019B99420CD80199A4
:1013C800D368CB1A002BE4D00023137462B6E0E78D
:1013D8000028DEDA5368F5E75368D1680198C31826
:1013E8005B1AEFE7154B70B55A68E023DB00051C64
:1013F800134080220C1C2960D20093421BD014D9C0
:10140800A022D20093420CD0C022D20093420ED127
:101418000B4B1E68B608206808F0C2FE281C26611F
:1014280070BD074B1E687608F5E7002B03D0044B08
:101438001E68F608EFE7024B1E68ECE70010024052
:1014480000000020F0B5474680B4041C1F1C0D1C8A
:101458008E18B54239D02068022108F097FD00287F
:101468000FD12068702108F091FD0028F3D0184BA7
:1014780016229A60174A58601A60002004BC9046E9
:10148800F0BD2978206808F073FDA389002B11D1DD
:101498002068012108F07AFD002806D12068702113
:1014A80008F074FD0028E2D1F2E7002F04D120688B
:1014B80008F060FD0135CCE77B1C2068984608F0F1
:1014C80059FD013538704746C3E70120D6E7C046C5
:1014D800200100200100160030B583B005E0C46883
:1014E800009BE31A44689C4218D283680093009DCD
:1014F800009B5B005B080093C468009B9C4209D07A
:10150800C468009B9C42EAD84368009CC568EB18F5
:101518001B1BE7E74368002DE4DA00239A42E4D86E
:1015280083685B005B08002A0DD08A180468E45CB5
:1015380001330C70446801311C1B651EAC416442C8
:1015480023409142F2D18022120613438360037C28
:10155800002B01D103B030BD836801930199019B31
:101568005B005B080193C268019B9A4212D0C26873
:10157800019B9A4208D8019AC368D31A002BE9D074
:101588000023037462B6E5E74368C2680199CB1883
:101598009B1AF3E70029DDDA4368EFE710B5031C6F
:1015A80082B005E0D968009A8A1A5968914216D221
:1015B8009A6800920098009A520052080092D968DE
:1015C800009A91421FD0D968009A9142EAD85A6885
:1015D8000099D8688218521A59689142E8D3002AAB
:1015E800E6D09A68196852005208885C5968013236
:1015F8008A420CD0802109060A439A601A7C002A84
:101608000BD102B010BD5A680028CEDAD0E780228C
:1016180012069A601A7C002AF3D09A680192019CFB
:10162800019A520052080192D968019A914212D047
:10163800D968019A914208D80199DA688A1A002A69
:10164800DFD000221A7462B6DBE75A68D968019CB9
:10165800A218521AF3E7002CD3DA5A68EFE7C0460B
:10166800F0B54F464646C0B400268BB080460660AB
:101678001420FFF71CFB3B4B9025ED05036010235E
:10168800041C45608360868180204001012108F0A8
:101698000BFC012702239946281C009320210322D2
:1016A80003230197029607F0FBFF4B46281C009383
:1016B8008021032203230197029607F0F1FF4B468E
:1016C800281C00934021032203230197029607F068
:1016D800E7FF0022281C102105AD0323009601977F
:1016E80007F080FF281C08F0F7FB82235B006B8063
:1016F800E023DB00AB8080239B006B81291C072340
:1017080020682B822E80EE802E81AE81EE8108F03B
:10171800F1FB2189606808F000FB2068012108F0CE
:1017280013FC802124612068490108F017FC434616
:101738001D68AC420FD0002D0BD02868002108F09E
:1017480003FC80204001002108F0AEFB281CFFF7B5
:10175800B8FA43461C6040460BB00CBC904699460C
:10176800F0BDC0460030014070B5061C35682989B7
:10177800686808F0D4FA34682068022108F006FC8A
:10178800002811D12068702108F000FC0028F3D04F
:101798002E4B16229A602E4A5860298968681A606A
:1017A80008F0BBFA002070BD2068052108F0E0FBB6
:1017B800A389002B34D034680221206808F0E6FBA6
:1017C80000280BD12068702108F0E0FB0028DFD149
:1017D8002068022108F0DAFB0028F3D020680021F5
:1017E80008F0C6FB2068012108F0D0FB00280BD1C7
:1017F8002068702108F0CAFB0028C9D1206801219F
:1018080008F0C4FB0028F3D0206808F0B3FB29894E
:10181800041C686808F081FAE307A7D40120C2E72E
:101828002068012108F0B2FB00280BD12068702144
:1018380008F0ACFB0028ABD12068012108F0A6FB1A
:101848000028F3D0206808F095FBB4E720010020B9
:1018580001001600F0B544465F4656464D46F0B4C2
:10186800446887B005E0CA68029BD31A4A689A425E
:1018780017D28B6802930298029B5B005B08029365
:10188800CA68029B9A4200D193E0CA68029B9A42B6
:10189800E9D84B68029AC868C3189B1A4A689A42E2
:1018A800E7D3072BE5D98B6804AD5B005B082A1CDE
:1018B80006AE0868C05C0133107048680132181A17
:1018C800471EB84140420340B242F2D1802212067C
:1018D80013438B600B7C002B00D06FE028886E8848
:1018E80084466068AF888489ED88019443680268FB
:1018F8008168C089AB4600902A250D6018601C607D
:10190800146004246046A146022500B22C1C001273
:101918004D46086015601C601460FF206546041C75
:101928002C40A4460224251C042064460C60106048
:101938001D601560022480463DB2201C2D124446CD
:101948000D60146018601060FF25281C3840251CA5
:101958000227086015601F6017602B270198009CFC
:101968000F601C601860106037B23F120424022018
:101978000F60146018601060FF20064002200E609F
:101988001460186010605D462EB236120E60146046
:1019980018601060FF205D46054002200D6014604D
:1019A8001860106007B03CBC90469946A246AB460A
:1019B800F0BD4B68002800DB58E75AE78B680393B3
:1019C8000398039B5B005B080393CA68039B9A42D6
:1019D80013D0CA68039B9A4209D8039ACB68D31AD2
:1019E800002B00D17AE700230B7462B676E74B68C8
:1019F800CA680398C3189B1AF2E7002800DB6DE752
:101A08004B68EDE7F0B5564644465F464D46F0B4A0
:101A18004268824C9246A54405E0CA68049BD31AE2
:101A28004A689A4216D28B6804930498049B5B0018
:101A38005B080493CA68049B9A4260D0CA68049BF6
:101A48009A42EAD84B68049AC868C3189B1A4A682D
:101A58009A42E8D3012BE6D98B680A685B005B08D9
:101A6800D25C684682734A6801339A1A501E8241D2
:101A7800524213400A686846D25C0133C2734A680E
:101A88009A1A501E82415242134080221206134372
:101A98008B600B7C002B00D09BE06A46D389002B1F
:101AA8006DD0FA22520093468022120602209446F4
:101AB80080460427D1461C1C5B4501D9FA246400E2
:101AC800A4B2A246600005E0CA68069BD31A4A6819
:101AD8009A421CD28B680693069C069B5B005B08A7
:101AE8000693CA68069B9A420DD0CA68069B9A421A
:101AF800EAD84B68069ACC68E3189B1AE7E74B6864
:101B080000288DDA8FE74B68002CE0DA0023984232
:101B1800E0D88B6808AA5B005B0810180C68E45CC6
:101B2800013314704C6801321C1B651EAC416442C1
:101B380023408242F2D1604603438B600B7C002B2A
:101B480025D14B461A6850465346013B00280ED013
:101B5800546815689668019108AA10884146306053
:101B68002F60216029600232013BF6D201996A4652
:101B7800D38950461B1A9BB2D381002B9BD1284B8B
:101B88009D443CBC90469946A246AB46F0BD8B6846
:101B980007930798079B5B005B080793CA68079B36
:101BA8009A420CD0CA68079B9A420CD8079ACB680D
:101BB800D31A002BC5D000230B7462B6C1E70028E6
:101BC800BFDA4B68F5E74B68CA680798C3189B1AD1
:101BD800EFE78B680593059B059A5200520805921A
:101BE800C868059A90420DD0CA68059B9A420ED8DB
:101BF800059ACB68D31A002B00D14EE700230B744B
:101C080062B64AE7002B00DB47E74B68F3E74B680F
:101C1800CA680598C3189B1AEDE7C046F4FBFFFF96
:101C28000C040000F0B544465F4656464D46F0B4F5
:101C380044688DB005E0CA68069BD31A4A689A4280
:101C480017D28B6806930698069B5B005B08069381
:101C5800CA68069B9A4200D111E1CA68069B9A425B
:101C6800E9D84B68069AC868C3189B1A4A689A420A
:101C7800E7D30C2BE5D98B686D465B005B0808AA97
:101C88002D350868C05C0133107048680132181A95
:101C9800461EB04140420340AA42F2D180221206B9
:101CA80013438B600B7C002B00D0EDE00D20FFF779
:101CB80004F808A90D22061C08F098FAE06884893F
:101CC8004368039402688168C0890490049DC82011
:101CD80008601D601C601460307874780090F0789B
:101CE8000194B478000104437079029434790001B6
:101CF8002043347AF57924012543B47AAC46757AC1
:101D08002401254305900224307BA846F57AA34692
:101D1800B779A9468246022558460424B346009E50
:101D28000E6014601D601560019E0E6014601D60D9
:101D38001560029E0E6014601D601560059E0E60A1
:101D480014601D6015600F6014601D6015606646A4
:101D58000E6014601D60156046460E6014601D60BC
:101D680015604E460E6014601D60156056460E6084
:101D780014601D6015600138C0B20028CFD1C92099
:101D8800039C049D08601D601C60146002200225ED
:101D98000424009E0E6014601D601560019E0E6094
:101DA80014601D601560029E0E6014601D60156051
:101DB800059E0E6014601D6015600F6014601D6044
:101DC800156066460E6014601D60156046460E601C
:101DD80014601D6015604E460E6014601D6015602D
:101DE80056460E6014601D6015600138C0B20028A8
:101DF800CFD1CA20039C049D08601D601C6014603C
:101E08000397059F022002250424009E0E6014609B
:101E18001D601560019E0E6014601D601560029EB5
:101E28000E6014601D6015600F6014601D60156001
:101E3800039E0E6014601D60156066460E60146097
:101E48001D60156046460E6014601D6015604E46A4
:101E58000E6014601D60156056460E6014601D60AB
:101E680015600138C0B20028CFD15846FEF72DFFC3
:101E78000DB03CBC90469946A246AB46F0BD4B68B7
:101E8800002800DBDAE6DCE68B6807930798079BF7
:101E98005B005B080793CA68079B9A4213D0CA681D
:101EA800079B9A4209D8079ACB68D31A002B00D10E
:101EB800FCE600230B7462B6F8E64B68CA6807981C
:101EC800C3189B1AF2E7002800DBEFE64B68EDE742
:101ED800F0B54F464646C0B4041CCBB01420FEF7FC
:101EE800E6FEC74B90260027F60503601023051C65
:101EF80046608360878180204001012107F0D4FF7C
:101F080002239946009301239846301C019320210F
:101F180003220323029707F0C3FB4B460093434673
:101F2800301C0193802103220323029707F0B8FB9A
:101F38004B4600934346301C019340210322032360
:101F4800029707F0ADFB43460022301C10210AAE71
:101F580001930097032307F045FB301C07F0BCFFF3
:101F680082235B007380E023DB00B38080239B0027
:101F7800738128680723311C33823780F7803781C3
:101F8800B781F78107F0B6FF2989686807F0C5FEB1
:101F98002868012107F0D8FF80212D6128684901B0
:101FA80007F0DCFF049705E0E268059BD31A626836
:101FB8009A4217D2A36805930599059B5B005B08B5
:101FC8000593E268059B9A4200D194E0E268059B7C
:101FD8009A42E9D86368059AE168CB189B1A626847
:101FE8009A42E7D3022BE5D9A36800225B005B087D
:101FF80004A82168C95C0133815461680132591A07
:102008004F1EB94149420B40032AF2D180221206E1
:102018001343A360237C002B06D030E1E268079BC2
:10202800D31A62689A4216D2A36807930799079B46
:102038005B005B080793E268079B9A4260D0E268FE
:10204800079B9A42EAD86368079AE168CB189B1AFB
:1020580062689A42E8D3FF2BE6D9A3684AAF5B00CF
:102068005B08321C2168C95C013311706168013258
:10207800591A481E814149420B40BA42F2D1802286
:1020880012061343A360237C002B00D0DEE0049BE0
:1020980009AC022222701A0C627029891A0A68682F
:1020A800A270E37007F03BFE2868022107F06EFF7C
:1020B80000282AD12868702107F068FF0028F3D08B
:1020C800504B16229A60504A5860298968681A60ED
:1020D80007F023FE2868002107F036FF8020002142
:1020E800400107F0E1FE281CFEF7EBFD4BB00CBCED
:1020F80090469946F0BD6368002900DB57E759E729
:102108006368002900DB8CE78EE72868062107F062
:102118002FFFAB89002B00D178E02989686807F088
:10212800FCFD2989686807F0FAFD2868022107F094
:102138002DFF00280BD12868702107F027FF002801
:10214800BED12868022107F021FF0028F3D02178AA
:10215800286807F00DFFAB89002B6DD00134A6422B
:10216800E3D12868022107F011FF00280BD1286865
:10217800702107F00BFF0028A2D12868022107F080
:1021880005FF0028F3D03178286807F0F1FEAB8905
:10219800002B00D198E00136B742E2D1298968685E
:1021A80007F0BBFD2989686807F0B9FD2868022196
:1021B80007F0ECFE00280CD12868702107F0E6FE35
:1021C800002800D07CE72868022107F0DFFE0028FD
:1021D800F2D02868052107F0CBFEAB89002B00D090
:1021E8008DE02868012107F0D1FE002800D083E0A7
:1021F8002868702107F0CAFE002800D060E7F0E7E1
:10220800003001402001002001001600286801214B
:1022180007F0BCFE002800D09DE02868702107F078
:10222800B5FE002800D04BE7F0E72868702107F0DA
:10223800ADFE002800D043E72868012107F0A6FE7C
:102248000028F2D0286807F095FE87E7A36808936E
:102258000899089B5B005B080893E268089B9A4210
:1022680040D0E268089B9A4222D8089AE368D31AB9
:10227800002B00D10BE70023237462B607E7A3689D
:1022880006930699069B5B005B080693E268069B2B
:102298009A422CD0E268069B9A420FD8069AE368C5
:1022A800D31A002B00D1BFE60023237462B6BBE625
:1022B8006368E2680899CB189B1AD9E76368E268F3
:1022C8000699CB189B1AECE72868012107F05EFEF7
:1022D800002844D12868702107F058FE002800D053
:1022E800EEE6F1E7002900DBD1E66368C0E70029E4
:1022F80000DB99E66368D4E7286807F03BFE2868A6
:10230800022107F043FE002807D12868702107F052
:102318003DFE002800D0D3E6F1E72868002107F049
:1023280027FE2868012107F031FE002807D1286818
:10233800702107F02BFE002800D0C1E6F1E72868DD
:1023480007F018FE2989041C686807F0E6FCE30713
:1023580000D527E7BEE6286807F00CFEDDE628680A
:1023680007F008FE17E7C046F0B5564644465F46F4
:102378004D46F0B49446A64C4268A544924605E002
:10238800CA68079BD31A4A689A4217D28B68079380
:102398000798079B5B005B080793CA68079B9A42EC
:1023A80000D12AE1CA68079B9A42E9D84B68079A84
:1023B800C868C3189B1A4A689A42E7D3072BE5D91D
:1023C8008B680CAA5B000EAC5B08101C00940C68B0
:1023D800E45C013304704C6801301C1B651EAC4181
:1023E800009D644223408542F1D1802000060343CA
:1023F8008B600B7C002B00D059E297885688158893
:10240800D2880023B9460492069305E0CA68099B5E
:10241800D31A4A689A4217D28B6809930998099B7C
:102428005B005B080993CA68099B9A4200D1E9E0FE
:10243800CA68099B9A42E9D84B68099AC868C318C0
:102448009B1A4A689A42E7D3022BE5D98B68002287
:102458005B005B08086806ACC05C0133A0544868A0
:102468000132181A441EA04140420340032AF1D108
:102478008022120613438B600B7C002B00D0FDE1F9
:10248800069A644B67460E930F911092002F00D165
:1024980030E1A8B2844648440138049C80B20190D7
:1024A800B2B2504647681319013BB8469BB2029234
:1024B800039343469B8944460593E489391C0A687B
:1024C8007F688968A3462A2008603C603B601360E7
:1024D80004232DB22C12181C02250C6010603D60DC
:1024E8001560FF25634604242B40201C02250B6041
:1024F80010603D601560019B201C1DB22D12A8467E
:10250800434602250B6010603D601560019CFF2565
:102518002C4002250C6010603D6015602B20059D45
:102528005B4608603B603D60156036B23612042594
:1025380002200E60156038601060029CFF2626405D
:102548000E60156038601060039D2EB236120425A7
:102558000E601560386010600398FF260640022060
:102568000E601560386010604C4624B20394640015
:10257800201CFEF7A2FB5546EB6802905A681968C2
:1025880098689D89A046DB892C2606601360156033
:102598000D60049F00203FB204978346002F00DCA3
:1025A80080E0039C0220013C05940421109B002636
:1025B800002B55D04646984500D91E1C9B1B1093EE
:1025C8000F9B05E0DC680B9AA21A5C68944227D23C
:1025D8009A680B920B9D0B9A520052080B92DC687A
:1025E8000B9A944218D0DC680B9A9442EAD85A683D
:1025F8000B9CDD68AA18121BE7E74B68002800DB74
:10260800C1E6C3E64B68002800DB02E704E7C046E2
:102618008CF6FFFF28A400085A68002DD5DA00229E
:102628009642D5D89A6852005208002E11D0029CC2
:10263800B446A5192E1C1D68AD5C013225705D6875
:102648000134551B6F1EBD416D422A40B442F2D180
:1026580066468024240622439A601A7C002A2FD1D9
:10266800B0451FD1039C53461A68059B002C10D017
:1026780055681668AC469568029A2C1C6546A446AF
:10268800148867463C603160286030600232013B44
:10269800F6D25B4601339BB2049C9B461BB29C421C
:1026A80000D083E70299002902D00298FEF70DFBBB
:1026B800964B9D443CBC90469946A246AB46F0BD1D
:1026C8009A681192119D119A520052081192DC6871
:1026D800119A944200D1CCE0DC68119A944200D956
:1026E800C1E0119CDA68A41A002CB9D000221A742F
:1026F80062B6B5E70EA911A807F0D4F8A8B2071C6E
:10270800049C4F44B2B2013F1319BFB20197013B79
:10271800574684469BB2786802920393848943683B
:1027280002688168C089A34605902A270F6018604F
:102738001C60146004202DB22C12071C02250C60AA
:1027480017601D601560FF25604604242840271C7B
:102758000225086017601D6015600198271C05B2E6
:102768002D12A84640460225086017601D601560B6
:10277800019CFF252C4002250C6017601D60156028
:102788002B255F4605980D6018601F60176036B2EC
:102798003612042502200E60156018601060029C35
:1027A800FF2626400E60156018601060039D2EB24B
:1027B800361204250E60156018601060039FFF260E
:1027C8003E400E60156018601060484600B28146B1
:1027D80040008046FEF771FA5146CB6803905A686C
:1027E800196898689D892C26DB8906601360156036
:1027F8000D60049C002524B204940295002C2ADD67
:10280800012040428346CB440225042411A80399A1
:1028180042460BAB07F0BCF900281CD00B99884541
:1028280019D1574648463A685B4600280BD0566887
:1028380017689068039A118801603C6035603D60B4
:102848000232013BF7D2029E049F0136B6B233B280
:1028580002969F42DAD1039F002F00D128E7039800
:10286800FEF733FA24E75C68DA68119D2C19A41A7C
:102878003AE7002D00DBF3E65C6835E78B680A93DE
:102888000A9B0A9A520052080A92C8680A9A904209
:1028980037D0CA680A9B9A4228D80A9ACB68D31AB2
:1028A800002B00D1ECE500230B7462B6E8E58B68D9
:1028B8000893089B0898400040080890CC6808983E
:1028C800844219D0C868089B984209D80898CB68F0
:1028D800C31A002B00D190E500230B7462B68CE577
:1028E8004B68C868089CE3181B1AF2E74B68CA686B
:1028F8000A98C3189B1AD3E7002B00DB7DE54B68C9
:10290800E7E7002B00DBBBE54B68C9E7740900006B
:10291800F0B544465F4656464D46F0B4444C4068D0
:10292800A5449046129005E0CA68349BD31A4A68B9
:102938009A4217D28B6834933498349B5B005B08B7
:102948003493CA68349B9A4200D1E4E2CA68349B43
:102958009A42E9D84B68349AC868C3189B1A4A68DF
:102968009A42E7D3072BE5D98B683BAA5B003DACBD
:102978005B08101C14940C68E45C013304704C6808
:1029880001301C1B651EAC41149D644223408542E6
:10299800F1D18020000603438B600B7C002B00D014
:1029A8004AE3948857880B941388D288B9460C92C6
:1029B8000022329205E0C868369A821A4868904226
:1029C80017D28A683692369C369A52005208369246
:1029D800C868369A904200D1A2E2C868369A9042F6
:1029E800E9D84A683698CC68A218121A4868904202
:1029F800E7D3022AE5D9886800244000400832AAB3
:102A08000D682D5C013015554D680134451B6E1E4F
:102A1800B5416D422840032CF2D1802212061043A2
:102A280088600A7C002A00D0EBE20022339207E09B
:102A380044F2FFFFC868389A821A4868904217D251
:102A48008A683892389C389A520052083892C86876
:102A5800389A904200D168E2C868389A9042E9D81A
:102A68004A683898CC68A218121A48689042E7D386
:102A7800022AE5D9886800244000400833AA0D6876
:102A88002D5C013015554D680134451B6E1EB5414E
:102A98006D422840032CF2D1802212061043886030
:102AA8000A7C002A00D07CE20B9F9DB22B954C46F5
:102AB800ED190C9FA4B22C94E2191BB2129C1B12A4
:102AC80060689BB20D938789013A92B20A97013DDB
:102AD8009446436802688168C689ADB22A200860B6
:102AE8001E601F6017600224271C04200D9C0C60C8
:102AF80010601F6017602B9FFF200740042082464C
:102B08000224201C0E9754460F6014601860106051
:102B180028B2001280B20F900220041C04270F98DC
:102B2800086017601C601460FF202840109004247F
:102B38000220109D0D601460186010604F4638B276
:102B4800001280B211900A9C2B2008601E601C6045
:102B5800146004240220119D0D6014601860106038
:102B68002C9FFF200740139702200F601460186005
:102B78001060644620B2001280B21590042402202E
:102B8800159D0D60146018601060FF2067460740AF
:102B9800169702200F60146018601060129DEC6890
:102BA8002C2563682268A168A089E4890D601C60EF
:102BB800186010603298149C0026666083461420C2
:102BC800339FFEF774F8E14B9024E405036010236B
:102BD800051C446083608681802040010121BA463B
:102BE800022707F061F9B94600970127201C0296D1
:102BF800202103220323019706F052FD4946201C99
:102C080000910296802103220323019706F048FDD4
:102C18004A46201C00920296402103220323019772
:102C280006F03EFD201CFFAC903400221021032347
:102C38000096019706F0D6FC201C07F04DF9822378
:102C48005B006380E023DB00A38080239B0063811B
:102C580028680723211C23822680E6802681A681F6
:102C6800E68107F047F92989686807F056F8286867
:102C7800012107F069F980212D612868490107F0D1
:102C88006DF9149B5E68B5420FD0002E0BD03068EA
:102C9800002107F059F980204001002107F004F9CC
:102CA800301CFEF70EF8149F7D60A94DC2233D9598
:102CB800149D9B005F46EF50C022C32392009B00E7
:102CC8001498EA50C42300259B00C554A14AC52383
:102CD8009B00C250C62320229B00C250C72340221B
:102CE8009B00C250C82380269B00C650FFAAC92358
:102CF8000C329B00C250D0239B00C550D1239B00AF
:102D0800C550954FCA239B00C750CC239B00C55084
:102D1800CE239B00C550CF239B00C650D2239B00D7
:102D2800C55080239B019946D3239B004946C15037
:102D3800D4239B00C55001228448012107F01DF9C6
:102D48000120012107F0A4F81498844AD5239B0098
:102D5800C2508022D62392009B00C2508022D723E3
:102D6800D2009B00C2508022D82312019B00C2507F
:102D7800FFAAD9234C329B00C250E0239B00C550C8
:102D8800E1239B00C550DA239B00C750DC231022A7
:102D98009B00C250DE239B00C550DF239B00C6501A
:102DA800E2239B00C550E3239B004946C150E4231E
:102DB8009B00C55001226548022107F0DEF801207A
:102DC800012107F065F8149DE5226B689200AB506D
:102DD8005868198906F0A3FF5746032323703B0C54
:102DE80063703B0AA370E770FFAE6C68FFAD903567
:102DF80094362068022107F0C9F8002800D099E02D
:102E08002068702107F0C2F80028F2D0544B16222F
:102E18009A60544A58601A60C322149C9200524B1C
:102E2800A2589A4241D9C2229200A458002C3CD000
:102E38009C4200D9B4E1149DCB233FAA9B00EA50E1
:102E4800CD239B00EC50C9239B00EB5800211D6843
:102E58003AAF281C06F008FFFFA9281C203106F00D
:102E6800E5FE281C012106F0FFFE149DDB239B00D4
:102E7800EF50DD239B00EC50D9239B00EB58002139
:102E88001C68201C06F0F0FEFFA9201C603106F02B
:102E9800CDFE201C012106F0E7FEC42301229B0081
:102EA800EA54C32300229B00EA504746002F00D172
:102EB800DDE04346012F01D100F058FB022B00D181
:102EC80095E1234CC423149D3D949B00EB5C002B9F
:102ED80000D081E0149DE5239B00EB5858681989C0
:102EE80006F01BFF214B6C683D93002C0BD020682B
:102EF800002107F029F880204001002106F0D4FFC6
:102F0800201CFDF7DEFE1A4B9D443CBC90469946BA
:102F1800A246AB46F0BD4B68002800DB07E509E593
:102F28004A68002C00DB49E54BE54A68002C00DBC9
:102F380083E585E52978206807F01AF8A389002B2E
:102F480018D00135B54200D053E765E7003001409D
:102F580050A400081C0002400C3001403000024020
:102F68002001002001001600FF02000010A4000844
:102F7800BC0D00002068012107F008F800280CD1DA
:102F88002068702107F002F8002800D03EE720688A
:102F9800012106F0FBFF0028F2D0206806F0EAFFC6
:102FA800CFE78A683992399A3998400040083990B1
:102FB800CC683998844200D113E1C868399A9042A4
:102FC80000D908E13998CA68821A002A00D16BE54D
:102FD80000220A7462B667E5C624A400149D2D5920
:102FE800281C069506F04EFE0028F7D0FFAF1037D4
:102FF800386806F051FEC423149C00229B00E2545A
:1030080068E78A683792379A3798400040083790BF
:10301800CC683798844200D1D7E0C868379A904284
:1030280000D9CCE03798CA68821A002A00D1FCE49B
:1030380000220A7462B6F8E48B683593359B35989C
:10304800400040083590CC683598844200D1B0E003
:10305800C868359B984200D9A5E03598CB68C31A53
:10306800002B00D19DE400230B7462B699E4FFA8FD
:103078001499329A903006F015FC129C60684368E7
:10308800026881688689C5892A2008601D601E60DB
:103098001660042402200D9F0F60146018601060F1
:1030A8000E9F0F601460186010600F9F0F6014600F
:1030B80018601060109F0F601460186010602B205B
:1030C80008601D601E6016600220119D0D6014606E
:1030D80018601060139F0F60146018601060159DD1
:1030E8000D60146018601060169F0F6014601860FF
:1030F80010600B9C27B27D00281CFDF7DEFD129C9A
:10310800A946E368061C5A68196898689C892C25A2
:10311800DB890560136014600C600C9D00202DB2E3
:103128003AA90C9580468B46002D32DD7C1E0B9407
:1031380002250424FFA89030311C4A465B4606F05D
:1031480027FD002825D03A98814522D112980B9B5B
:103158000268002F15D0516810688A468446916825
:10316800301C5246B2466646BC46371C161C0288BE
:103178000A603C6035603D600230013BF7D267462B
:103188005646434601339BB20C9A98461BB29A4264
:10319800D0D1002E00D194E6301CFDF796FD90E6C4
:1031A800C024A40047E64B68C868359CE3181B1A7E
:1031B80056E7002B01DBFFF7F4FB4B6850E74A6842
:1031C800C868379CA218121A2FE7002A01DBFFF7FC
:1031D8002CFC4A6829E74A68C868399CA218121A60
:1031E800F3E6002A01DBFFF75FFC4A68EDE6FFA87B
:1031F8009030149905F0FEFE002800D061E6002406
:10320800289405F0F5FB002800D05AE6FFAF289D6A
:10321800A0373F682BB2BB4200DB52E6FFA8AC30B8
:1032280000682990002800DC9DE1FFAA2999A832AE
:1032380012685943A3B224B22A926243299D2E925E
:10324800289A2D936A432D9C2A9B2C9F6343BA1876
:1032580092B22B9D26922A9AFFAC5B199BB2013A37
:103268009434D208246830930823D2005B420020AB
:10327800611A9B1A27902F91319302262F9F279826
:103288003F1A0C97082F01DD08210C912A9A002A71
:1032980000DC07E1129CFFAFFFA8B037B430E36849
:1032A8003F680068FFA9B831239725905D681F68BB
:1032B800986809682195209724911D909989FFAAFB
:1032C8001B91DB89A432189312780C9B1792269ACB
:1032D8002699013AD218636892B25C681D689F68A3
:1032E8000E940F950D979889FFAD1590DB89903551
:1032F80016930BB21B129BB22293FF230B401C9315
:1033080013B22E9F1B122D6827999BB2ED1B1993A0
:1033180031984B00EB18FF24309F401914409BB2A2
:1033280010951A9413971F901E930425109B1E9AAC
:10333800239CD71AFF00BFB2B846201C4044059012
:103348009B46082B01DD08229346139B0F9C013BEB
:103358005B449BB29C460D9F0E9B159816992A229A
:103368003A60196018602060139B0E9819B2091210
:103378003960256006602660FF21194039602560A4
:1033880006602660624611B209123960256006603F
:103398002660FF24634623400F993B600D6006605A
:1033A8000E602B24159A169B3C60036002600A602D
:1033B800229A3A600D6006600E601C9B3B600D60AF
:1033C80006600E60199C3C600D6006600E601A9ADB
:1033D8003A600D6006600E602C22219B209C1D9F88
:1033E8001B9818993A60196018602060179B0C9C0C
:1033F800002B73D0002C4ADD259F082124985A46BB
:103408008A1ABC460B92071C0023059AC4444744F9
:103418000A9307215B46002B2FDD129C236858680E
:103428001C6882469868A14680465C46381C574608
:10343800002311979246059483466246D45C52460F
:10344800D05C0327BC4388435F46E400C010204398
:10345800FC5C119A8C432402204347464C46386052
:10346800256016602660059801338342E5D15F46E2
:10347800524683465A44DC445F440A9C0B9B0C9892
:103488000134D2189C44FF180A948442C2D1139B79
:10349800109F08331F98083F9BB2109713938742D9
:1034A80000D043E7279B299C08332793269B279D19
:1034B80008339BB22693AC4200DDDFE62D9CFFA9C2
:1034C80001349C31A4B2096823B28B4200D098E63B
:1034D800289B002401339BB2289392E6002CD6DD6A
:1034E80058460827381A1190584600210B900A911F
:1034F8000B98129907220323924699468B46059A00
:1035080000282EDD59460B681F685C68BC469F681A
:10351800A04661461418A44605913C1C47461178FC
:1035280050460B1C834348468143C90088464046A1
:10353800D91008431902031C0B43059923600D6039
:103548003E600E6001326245E9D16446119B0C9FD2
:10355800E2180A9C01340A94BC4298D00B980028BF
:10356800D0DC141CF2E7A4B22D94A7E7129C606883
:103578004368026881688689C5892A2008601D60B9
:103588001E601660042402200D9F0F6014601860EE
:1035980010600E9F0F601460186010600F9F0F601E
:1035A800146018601060109F0F601460186010603D
:1035B8002B2008601D601E6016600220119D0D60A2
:1035C800146018601060139F0F601460186010601A
:1035D800159D0D60146018601060169F0F601460D0
:1035E800186010600B9C24B26500281C0E940D9581
:1035F800FDF763FB129C8146E3682C255A6819681D
:1036080098689C89DB890560136014600C600C9DC8
:1036180000272DB20C950F97002D00DCB8E0C223CF
:103628009B009A46C4239B00149C9B460D9D002D2D
:1036380000D188E05746E759002F00D1A7E00027BE
:103648000B97C627C846BF0067E0C3239B00E35813
:10365800C0229200D21A2E1E964200D9161C083398
:10366800E118321C404606F0C1FD0B9CC322A41988
:1036780092000B943DACA058514661583318A350A2
:10368800B0445246AD1B8E1BA650464A93423ED9C3
:10369800002E3CD0964201D9C026B600CB233FAAC3
:1036A8009B00E250CD239B00E650C9239B00E358C2
:1036B80000211B68181C0A9306F0D6FAFFA90A987D
:1036C800203106F0B3FA0A98012106F0CDFADB237F
:1036D800FFA89B009030E050DD239B00E650D923E3
:1036E8009B00E35800211E68301C06F0BDFAFFA9B4
:1036F800301C603106F09AFA0121301C06F0B4FA49
:10370800012359466354C3239B000022E250002D35
:1037180015D050462058002811D05846235C002B5D
:1037280093D0E05906F0AEFA0028FAD0FFA910317C
:10373800086806F0B1FA00235A46A35485E70D9DA0
:103748000B9FBD4223D1129D0E9A0E9F2B68013A02
:10375800002F13D0586802211F689E6884464B4684
:1037680088460A94198864464546042031603860C2
:1037780025603D600233013AF4D20A9C0F9B0C9DF0
:1037880001339BB20F931BB29D4200D04EE71494B5
:103798004846002801D1FFF794FB4846FDF795FA03
:1037A800FFF78FFBFF02000030B585B005E0CA685F
:1037B800029BD31A4A689A4216D28B680293029CDB
:1037C800029B5B005B080293CA68029B9A423FD047
:1037D800CA68029B9A42EAD84B68029ACC68E318F6
:1037E8009B1A4A689A42E8D3012BE6D98B680C6881
:1037F8005B005B08E45C01AA14704C6801331C1B75
:10380800651EAC41644223400C68E55C6C466571FA
:103818004C6801331C1B651EAC4164422340802464
:10382800240623438B600B7C002B19D15378591E37
:103838008B41D9B21378012B30D04368002B05D0C7
:103848001868002908D1002106F0EBFB05B030BD4F
:103858004B68002CAEDAB0E7012106F0E2FBF5E791
:103868008B680393039D039B5B005B080393CC6801
:10387800039B9C421CD0CC68039B9C4212D8039C9F
:10388800CB68E31A002BD1D000230B7462B65378AF
:10389800591E8B41D9B21378012BCED10368002B66
:1038A800CED1D3E74B68CC68039DEB181B1BE9E727
:1038B800002DBBDA4B68E5E738B50160096882601E
:1038C8000022C2600261021C41601432041C23CB36
:1038D80023C21B6806201360002106F0CDFA201CC5
:1038E80038BDC046F0B55F4656464D464446F0B42E
:1038F8004B8844689B460123CB560D889BB2A78909
:103908009C4622686368A168E48983B0AA4601944A
:103918002A260E601C601F60176002252E1C0424D6
:1039280065460D6014601E601660FF2654463440DC
:10393800A2460224251C042654460C6016601D600D
:1039480015600226341C042566460E6015601C604E
:10395800146002252E1C042455460D6014601E6058
:1039680016605E4635B22D12ADB22B24019E0C6056
:103978001E601F601760042702240D6017601C601A
:103988001460FF245E46344002260C6017601E60F7
:1039980016600D6017601E601660042602250C6014
:1039A80016601D601560C3682C265A6819689C68E3
:1039B8009D89DB892660136015600D600368058AA0
:1039C8005A68196804249B6802201D600C60106006
:1039D800086003B03CBC90469946A246AB46F0BD91
:1039E800F0B544465F4656464D46F0B4BA4CA54439
:1039F8000C8849880990239129A8111C229405F064
:103A0800F9FA002800D05FE100271E97002404F08F
:103A1800EFFF002800D057E11E9F2D983BB283424C
:103A280000DB51E130991F91002900DCA6E11F99C4
:103A38002F9A5943A3B224B2209262431F9F249223
:103A48001E9A2193219C7A43209B2A986343239CA6
:103A58000027121992B2229C1C92209A1B199BB221
:103A6800013AD20826930823D2005B42411A9B1AD6
:103A78001D97259127930226259F1D983F1A039786
:103A8800082F01DD08210391209A002A00DCFDE0BF
:103A9800099C3198E36832990F901A915F68186809
:103AA8009968339A1097119012911B929A89039CE6
:103AB8001392DB891C9A1493013A2EAB1B781219C6
:103AC800099C1593636892B25F68186899680497AF
:103AD800059006919C89FF200B94DB89FF210C93AC
:103AE8001C9F11403BB21B129BB2169313B21B12C0
:103AF80038409BB217901893299A249B1D98D21A84
:103B0800279F4300269CD318BF189BB21991079290
:103B18000A940E970D930425079A0D990F9B8F1AF7
:103B2800FF00BFB2B8461C1C444400949346082AC0
:103B380001DD082083460A9B0499013B5B449BB244
:103B48009C46059A069B0B9C0C9F2A2018600F60C8
:103B58000C6014600A9A049C11B20912059F19603E
:103B68003D6026603E60FF21114019603D6026607F
:103B78003E60604601B2091219603D6026603E60F1
:103B8800FF2163460B40069A13603D6026603E6045
:103B98002B210B9B0C981160206023603B60169BC7
:103BA80013603D6026603E60179810603D60266097
:103BB8003E60189911603D6026603E60199B136055
:103BC8003D6026603E602C23109C119F129813992B
:103BD800149A0360226021603960159C039F002CB1
:103BE80000D17DE0002F46DD1B991A980F1C082292
:103BF8005B46D31A47448446C444029300243B1CC2
:103C0800009A6746019407219C465846002828DDFB
:103C1800099C08922368009758681C68824698682F
:103C2800A14680460023009A0327D45C089ABC4327
:103C3800D05C67468843E400C0102043FC5C5246D1
:103C48008C432402204347464C4638602560166062
:103C5800266001335B45E6D1089A009F5A445F44C9
:103C6800DC44019B0298039C013312183F188444DA
:103C78000193A342C9D10A9B079908330E9A0839C0
:103C88009BB207910A93914200D045E71D9B1F9C68
:103C980008331D931C9B1D9F08339BB21C93BC4289
:103CA80000DDE9E6219C2C9F0134A4B223B2BB427B
:103CB80000D0ACE61E9B002401339BB21E9304F097
:103CC80097FE002800D1A7E6044B9D443CBC9046D3
:103CD8009946A246AB46F0BD4CF6FFFFB40900007A
:103CE800002FC8DD59460820411A5846029008910D
:103CF8000298099900220723032401929A46A146B3
:103D0800009A8B4600282FDD59460B681F685C68AF
:103D1800BC469F68A0463B1C414667461418009164
:103D28009C46117850460B1C834348468143C90082
:103D380088464046D91008431902031C0B436046C5
:103D4800009903603D600E603E600132A242E8D1F6
:103D58000899019B6218039C01330193A34200D187
:103D680089E702980028CFDC0899141C019B621887
:103D7800039C01330193A342F3D17CE7A4B22194BD
:103D8800219C2C9F0134A4B223B2BB4200D03EE652
:103D980090E7C046F0B55F4656464D464446F0B4F7
:103DA8008C8887B00A8804944E8893B2B7B2984634
:103DB800231C019702964344C988013B9BB29C4649
:103DC8007B18013B47689BB205910393BC899346D6
:103DD80000947B683A68B9682A25FF890D601F60DE
:103DE8001C60146004245E46A246022536B22C1CD0
:103DF800361255460E6015601C601460FF26454655
:103E0800341C2C40A04604260224251CB2464446F5
:103E18000C6016601D601560654602242DB2261CD4
:103E28002D1254460D6014601E601660FF2564460E
:103E38002E1C2640B4460226341C042566460E6015
:103E480015601C6014602B24009D0C601F601D60B1
:103E58001560029E042735B22D1202260D601760E8
:103E68001E601660019CFF252C40042602250C606C
:103E780016601D601560039F04253EB236120224A9
:103E88000E6015601C601460FF263E400E601560D1
:103E98001C60146003682C249A89D9895D681E689F
:103EA8009F683C6029602A6032600599049C0AB2C8
:103EB80021B25143028A181CFCF78EFC07B03CBCA7
:103EC80090469946A246AB46F0BDC046F0B544467A
:103ED8005F4656464D46F0B494468DB0446805E0BA
:103EE800CA68089BD31A4A689A4217D28B68089303
:103EF8000898089B5B005B080893CA68089B9A426D
:103F080000D1D0E1CA68089B9A42E9D84B68089A60
:103F1800C868C3189B1A4A689A42E7D3072BE5D9A1
:103F28008B680AAE5B005B08301C0CAF0A68D25C79
:103F3800013302704A6801309A1A551EAA4152424A
:103F48001340B842F2D18020000603438B600B7CFB
:103F5800002B01D000F0BAFA3088B1888346708807
:103F68000791F68862460596092A00D126E20A2AB0
:103F780000D19DE1079A594689B28846131C4344EB
:103F8800676885B2013B06955E469BB2BD899C4633
:103F980033B21B129BB204959B463A687B68B9689A
:103FA800FF892A2602970E601F601D601560022592
:103FB8002E1C04275D460D6017601E601660FF26E4
:103FC8004546371C2F40BA4602273D1C0426574653
:103FD8000F6016601D60156065462DB22D1204270E
:103FE800AEB2B94602252F1C03964D460E601560E9
:103FF8001F601760FF266546371C2F40B946022709
:104008003D1C04264F460F6016601D60156000B207
:10401800001280B28046049D2B20029E08601E601C
:104028001D6015600426022047460F601660186060
:104038001060069DFF200540049502200D60166063
:104048001860106047460F601660186010600D60B9
:10405800166018601060079D20682DB20795838947
:10406800C2892C21466807688568296032603360F8
:104078003B60228A0799FCF7AFFB069E059FF5195E
:10408800013DADB2AC4665682A26A8896B680290E6
:104098002A68A968ED890E601D6018601060022604
:1040A80004275846086017601E601660504608606E
:1040B80017601E6016600398086017601E6016601F
:1040C8004846086017601E60166067463EB23612A2
:1040D800B6B2069602982B260E601D601860106016
:1040E80004250220069E0E60156018601060FF25EA
:1040F80067462F40019704260F601660186010600D
:10410800069D0D601660186010600F6016601860DC
:10411800106020682C258689C789416802688368F1
:104128001D600F600E601660228A0799FCF754FB29
:104138006668B789736807973268B168F6892A276D
:10414800029607980F601E6018601060042502260A
:104158002F1C5846086017601E6016602F1C5046BA
:10416800086017601E6016602F1C584608601760AC
:104178001E601660281C371C55460D6010601F60B5
:1041880017602B27079E02980F6018601E60166044
:104198000426022045460D60166018601060049FD2
:1041A8000F60166018601060069D0D60166018603C
:1041B8001060019F0F60166018601060059D2068F0
:1041C8002DB2AB468689C7892C2142680368856869
:1041D8002960176016601E60228A5946FCF7FCFAAF
:1041E8006768BE897B6805963A68B968FF8907974A
:1041F80007982A270F6018601E601660022604259B
:10420800281CB446371C039D0D6010601F601760A2
:104218000426351C60464E460E6015601860106016
:1042280004273E1C6546039F0F6016601D601560DD
:104238000420071C66464846086017601E60166022
:104248002B25059E079F0D601F601E6016600427C2
:10425800022045460D60176018601060049E0E60CD
:10426800176018601060069D0D6017601860106078
:10427800019E0E6017601860106020682C218389E9
:10428800C28947680568866831603A603B602B6080
:10429800228A5946FCF7A0FA0DB03CBC90469946D4
:1042A800A246AB46F0BD4B68002800DB1BE61DE6C6
:1042B8005B469BB298460B1C4344059F013B86B264
:1042C8009BB29C46F319013B67689BB20396049323
:1042D800BD897B6806953A68B968FF892A260297DE
:1042E8000E601F601D60156004255F46AA46022601
:1042F8003FB2351C3F1256460F6016601D601560B0
:10430800FF2746463D1C3540A84602252E1C04279B
:1043180045460D6017601E6016606646B946022560
:1043280036B22F1C36124D460E6015601F6017609E
:10433800FF266546371C2F40BC4602273D1C042635
:1043480067460F6016601D6015602B25069E029F4C
:104358000D601F601E60166000B20012042702265E
:10436800086017601E6016600398FF270740042640
:1043780002200F60166018601060049D2FB23F1273
:104388000F60166018601060FF272F400F601660DE
:104398001860106020682C218389C28946680768E4
:1043A80085682960326033603B60059E079F33B2A1
:1043B80039B25943628AFCF70FFA6DE7079A5946F2
:1043C80089B28846131C4344013B059D9BB29C4619
:1043D80083B203935B19013B67689BB20493BE8960
:1043E8007B6806963A68B968FF890297029D2A2772
:1043F8000F601D601E60166004275E46BA460225DF
:1044080036B22F1C361255460E6015601F601760B5
:10441800FF264546371C2F40B84602273D1C042678
:1044280047460F6016601D6015606546B146022755
:104438002DB23E1C2D124F460D6017601E6016608F
:10444800FF2567462E1C3E40B4460226371C04252D
:1044580066460E6015601F6017602B27069D029E3A
:104468000F601E601D60156000B20012042702264E
:10447800086017601E6016600398FF27074004262F
:1044880002200F60166018601060049D2FB23F1262
:104498000F60166018601060FF272F400F601660CD
:1044A8001860106020682C218389C28946680768D3
:1044B80085682960326033603B60059E079F33B290
:1044C80039B25943228AFCF787F9E5E68B680993E4
:1044D800099D099B5B005B080993C868099B984282
:1044E80015D0C868099B98420BD80998CB68C31A9D
:1044F800002B01D1FFF730FD00230B7462B6FFF7E4
:104508002BFD4B68C868099DEB181B1AF0E7002DB6
:1045180001DBFFF721FD4B68EAE7C046F0B54D46E1
:10452800564644465F46F0B4824610880B8899B0D8
:1045380005B204901CB20295A1464988AC4200D14C
:1045480098E10D9152880CB2039212B205949446E8
:10455800944200D110E20298814500DC28E1049ED3
:104568000598B6B29B1B9BB261469FB20B93431A48
:10457800DA179B18B04606975340844500DA14E1D1
:10458800A74D15959BB20C930B9E0C9F5B429BB25B
:104598001693F31B50469BB29B4643682A245968DE
:1045A800986801919A8919680792DB89019D089397
:1045B80004602B602A600A60029A042516120224FD
:1045C800019B06600D601C600C60FF2344461C4084
:1045D800A04602230424019D464606600C602B6019
:1045E8000B60022707600C602B600B607F22026063
:1045F8000C602B600B602B24079B089E04602E60C8
:104608002B600B6067463F120424022307600C608E
:104618002B600B60039AFF231A40022302600C6090
:104628002B600B6001239C466646022306600C60E3
:104638002B600B60672707600C602B600B6052468D
:10464800D3682C225C681D689E680E940F9510969E
:104658009F891197DB8912933260236027602F604E
:1046680054462368258A5E681F689B6813951493CF
:1046780009960A9704220223149C25603A60336045
:104688003B60169B0D9C159D1BB29A4663199BB205
:10469800049F9EB216935B461796BC460493029DF0
:1046A8004D4505D1039E059F33B2BB4200D175E04D
:1046B800049C0025A4B2A346640023B2A8469A45E8
:1046C8000CDA64460C9F5E460134A4B2F51BADB209
:1046D800A446012224B2049590460294029D4D45B9
:1046E80000D181E0069E36B29E4200DC72E0039C57
:1046F800159E049B0B9AA519D718ADB2BFB2AAB2E2
:1047080043460497AB460392002B00D08AE0019BF6
:10471800079C089D2B2606601D601C600C60039A90
:10472800019C13B21B1298460225042346460660D4
:104738000B6025600D60FF235F461F400423076060
:104748000B6025600D60012202600B6025600D6022
:10475800672398464646042306600B6025600D6073
:104768002C270E9A0F9B109C119D129E2760166095
:1047780015601D600423099F0A9A149C0225139E44
:10478800266013603D601560029D4D4500D08FE79F
:10479800039E059F33B2BB4200D089E719B03CBCE9
:1047A80090469946A246AB46F0BD01241594E9E629
:1047B800039A0D990D92049A0493049C0D9D0391FC
:1047C800131C24B212B22DB209B291460294059577
:1047D8008C46C4E64746002F00D160E7099A0A9B39
:1047E800022414601C605AE7039E059F36B2BE423D
:1047F80000D077E74246002A00D041E1069C0D9A96
:1048080024B203929C4200DC49E7049E0B9D179A50
:10481800AF19BFB20497169F0392BB4677E7C0460D
:10482800FFFF00002A24019D079E089F04602F6057
:104838002E600E60029A042413120226271C0360BD
:104848000F602E600E60FF2362461A400423026048
:104858000B602E600E6002239846444604230460D1
:104868000B602E600E607F25019A05600B60166054
:104878000E604CE7528808B214B2151C844200DD61
:10488800FAE0511A09B2CE1789197140AFB289B24C
:1048980005917E1851464868B6B207960697061CD9
:1048A8004C46B789F189221292B29146B46842689F
:1048B800BC46006888462A26266011601760076093
:1048C80004273E1C02214F462760066011600160E4
:1048D8000427BB46FF210B4002275946236001608D
:1048E800176007600426311C4E4626600160176079
:1048F8000760022104270E1C23600760166006600B
:104908002B236146464623601660116001602DB274
:104918002D12AC4602230425674627600560136004
:104928000360069FFF231F40022327600560136072
:10493800036007990FB23F12276005601360036098
:10494800FF230E1C1E4002232660056013600360CF
:10495800524610682C248389C2894568066887688E
:104968003C602A602B60336005995346013109B2D7
:104978001A8AFBF731FF11E7049E0298351C484557
:1049880000DD7BE0049A5046D11A09B2CB17C9184A
:104998004668594089B2ACB28B46B189271C5F443E
:1049A8000691A44673683268B068BFB2F6892A24B3
:1049B80004601E60196011602DB22D12A9460425ED
:1049C800A8462C1C02214D46056014601960116030
:1049D800FF25614629400225A9462C1C4546016051
:1049E80015601C60146004218C463DB22D124946A6
:1049F80064460560146019601160FF253D40AC46AF
:104A0800042702256146016017601D601560059C3A
:104A18002B272512ADB2069907601E601960116038
:104A280004260224056016601C6014600D9EFF2495
:104A3800344004270226046017601E601660056073
:104A480017601E60166004260225046016601D604B
:104A58001560574638682C248389C28941680568DF
:104A6800866834600A600B602B605946013109B2D0
:104A78003A8AFBF7B1FE91E60D1C02E71D1C81E79F
:104A88000223099C0A9D23602B6087E6F0B55F46E8
:104A9800444656464D46F0B49BB009910F9254884F
:104AA800834610941388002C01D100F030FB25B206
:104AB8000595291E01DA00F0B3FF1AB2002A01DABF
:104AC80000F0BAFF059C52436443E117890F139223
:104AD8000919109A01208910139D024049428A1A27
:104AE800059E17926A425643059F6A000296139ED6
:104AF80052425743F217920F9219129492100340A0
:104B080018975242129F6400D21AD21B804601267F
:104B180016946D00002403940A960494199514922F
:104B2800109F0020002302264446D9462EE0059D0A
:104B3800139B6B43029D5A19179D95422DDA179DB9
:104B480013996A1A029DEB1A9A4201DB00F015FCD0
:104B5800109B189D013B9BB2199910936D18029AEE
:104B6800109952193BB209B21895029201349C4629
:104B7800BDB20591059B002B00DA78E10F99002260
:104B88008A5E04990BB29A4200DA70E1129D6B4377
:104B9800029D5B19149D9D42C9DB012C01D100F0D7
:104BA800E7FB3AB2631E52005B0080B29A4201DA18
:104BB80000F03BFB099DBFB22B88A4B207970C906D
:104BC8001B1A221C6888013AC01B92B20A9F0D94D6
:104BD80094B2BFB221B29BB280B2BB4608940029FE
:104BE80001DA00F051FD06940E905D462DB20B954A
:104BF800002D01DA00F03DFD584611909A460E9DB1
:104C0800069FADB2119CE819524692B201389046FF
:104C1800231C80B20090434448464768013B0195F5
:104C28009BB29C463A687B68B968BD892A24FF898B
:104C38000C601F601D601560504600B2001204240D
:104C4800086014601E601660FF20041C4046044083
:104C5800A0460424201C44460C6010601E601660A8
:104C6800604600B200120424086014601E601660DA
:104C7800FF20041C60460440A4460424201C64460B
:104C88000C6010601E6016602B2008601F601D609D
:104C980015600E9C042527B23F120F6015601E6038
:104CA8001660019CFF252C4004250C6015601E60D1
:104CB8001660009F04243DB22D120D6014601E6022
:104CC8001660FF24381C20400424086014601E600D
:104CD8001660494608682C218389C289446805689A
:104CE80087683960226023602B601199069A0BB29D
:104CF80011B259434B461A8AFBF76EFD099C079F70
:104D0800638822880133FB180C9D0D9C99B20123FE
:104D1800521B1B1B92B298B21D0401D500F090FCE7
:104D2800089006910B9C002C01DA00F07EFC5F468F
:104D38000B9793460B9A594689B28846131C4344ED
:104D4800013B9BB29C46069B089C9BB218194D469A
:104D580001386F6880B20E9311907B683A68B96821
:104D6800BD892A20FF8908601F601D6015605C46A8
:104D780024B2241204200C6010601E601660FF2408
:104D8800201C4446204080460420041C40460860FD
:104D980014601E601660644624B2241204200C605D
:104DA80010601E601660FF24201C64462040844664
:104DB8000420041C6046086014601E6016602B24E2
:104DC8000C601F601D601560069D2FB23F12042500
:104DD8000F6015601E6016600E9CFF252C40042590
:104DE8000C6015601E601660119F04243DB22D12E0
:104DF8000D6014601E601660FF24381C20400424D7
:104E0800086014601E601660494608682C21838972
:104E1800C2894468056887683960226023602B600E
:104E28000B99089A0BB211B259434B461A8AFBF7F1
:104E3800D3FC079D0D9C01352D1BADB2AFB238B226
:104E480084460C98049B039C1699029A64180133B3
:104E58009BB2121903940A9C0493059B02340130F7
:104E68000A94029280B20124002B00DB86E6A04659
:104E7800231C0A9C80B2A4B26146CB4604900C94D1
:104E8800994201DC00F0B2FC099E049F73883288C5
:104E98004446D21B5B1BA4B2464692B29BB2029414
:104EA800360401D500F054FD0F9410930C9C24B2E5
:104EB8000894002C01DA00F0A8FD0C9E9246129688
:104EC8001299504680B2109A84460F9E0F1C92B2D7
:104ED80067449319013FBCB2013B5F467E689BB2B1
:104EE80003920593B089736807903268B168F689B0
:104EF8000B960B9F2A260E601F6018601060042610
:104F08005046B146022700B23E1C00124F460860C8
:104F180017601E601660FF206746061C3E40B446B8
:104F28000226371C042066460E6010601F6017605A
:104F38000226804627B2301C3F1246460F60166094
:104F480018601060FF27381C204004240227261C04
:104F5800086016601F6017602B2707980B9C0F606E
:104F68001C6018601060109E022037B23F120426A1
:104F78000F601660186010600398FF270740022032
:104F88000F60166018601060059C27B23F120F6012
:104F9800166018601060FF2727400F6016601860C1
:104FA80010605E4630682C228789C189436804688E
:104FB8008668326019601F602760129F0F9A3BB2A3
:104FC80011B259435B461A8AFBF706FC099C049EFA
:104FD80063882288029F0133ED18921B7B4292B2AC
:104FE800ADB299B2180401D500F008FD02910395FD
:104FF800089D002D01DA00F0B5FC0C9E924604963F
:10500800039A029B504692B280B28446D0185C46FE
:1050180001386668049980B205920690B5890F1C1C
:1050280067440795013F73683268B168BFB2F68973
:105038002A2008601E601D60156004255446A94694
:10504800022024B2051C241248460C6010601D6022
:105058001560FF246046251C0540AC460225281C27
:10506800042465460D601460186010600225A0468F
:1050780038B22C1C00124546086015601C6014608C
:10508800FF20041C3C40281C02270C6010601F6095
:1050980017602B27079C0F601E601C601460039D1F
:1050A80004262FB23F1202250F6016601D6015609E
:1050B800059CFF252C4002250C6016601D601560BC
:1050C800069F04253EB2361202240E6015601C604D
:1050D8001460FF24381C20400224086015601C60FE
:1050E8001460594608682C218389C2894468056878
:1050F80086683160226023602B60029A049F11B297
:105108003BB259435B461A8AFBF766FB86E0099C6B
:105118009BB222886688D21A5B0001339BB299B28F
:1051280090B20AB2002A01DA00F001FC029180462E
:10513800029F4546ADB2AC463D1C65445846013D0C
:105148004468ADB20395A78963682268A068E489BA
:105158002A21049401601C601F60176004254446DE
:10516800AA46022124B20D1C241251460460116083
:105178001D601560FF246146251C0D40AC460225C4
:10518800291C0424654605601460196011600399A0
:10519800A046022509B22C1C09124546016015607B
:1051A8001C601460FF21039D0C1C2C400421022567
:1051B800046011601D60156035B22D12ADB22B244C
:1051C8000499046019601F601760042702240560B1
:1051D80017601C601460FF243440022604601760C6
:1051E8001E601660056017601E60166004260225A2
:1051F800046016601D6015605A4610682C24838967
:10520800C2894568066887683C602A602B603360FD
:10521800029A5B4611B21A8AFBF7DEFA1BB03CBC55
:1052280090469946A246AB46F0BD099C0890618815
:10523800BFB2C91B7F00013723880A9DBFB2BAB22B
:105248001B1AADB210B29BB289B2AB46002800DA85
:1052580007E20D9207915F463AB2002A00DAF6E1BA
:1052680059460C919B4607980C9F0D995D46ADB227
:1052780080B20690A8463B1C40184A464344013871
:10528800576880B2013B0B909BB29C463A687B689A
:10529800B968BD892A24FF890C601F601D601560EC
:1052A800584600B200120424086014601E6016609C
:1052B800FF20041C40460440A0460424201C444609
:1052C8000C6010601E601660604600B20012042474
:1052D800086014601E601660FF20041C60460440CD
:1052E800A4460424201C64460C6010601E601660EE
:1052F8002B2008601F601D601560079C042527B2DD
:105308003F120F6015601E601660069CFF252C403A
:1053180004250C6015601E6016600B9F04243DB2C6
:105328002D120D6014601E601660FF24381C20408A
:105338000424086014601E601660494608682C2121
:105348008389C28944680568876839602260236058
:105358002B600C990D9A0BB211B259434B4600249D
:105368001A8AFBF739FA251C0898A446002769E52C
:1053780039B280B28C46BDB264E53AB252006300DD
:1053880080B29A4200DA88E1BFB2099D08900D9771
:105398006A882B88D21B0A9F1B1ABFB2A0B29BB285
:1053A80092B2BB468246210401D500F0F8FA079074
:1053B80006925C4624B20C94002C01DA00F0E4FA60
:1053C8005F460B9798460B9A414689B28C46171C44
:1053D800069B079C67449BB2013F1593BFB21B19FC
:1053E8000E97013B4F467D689BB205932A686B6810
:1053F800A968AC892A20ED8908601D601C601460CA
:1054080047463FB23F1204200F6010601E601660CE
:10541800FF27381C6746384084460420071C60462E
:10542800086017601E6016600E9F04203FB23F128E
:105438000F6010601E601660FF27381C0E9F3840F2
:105448000427086017601E6016602B270F601D6018
:105458001C6014600698042405B22D120D601460B7
:105468001E6016601598FF2420400424086014600C
:105478001E601660059D04202CB224120C6010607A
:105488001E601660FF242C400C6010601E601660C1
:105498004F4638682C218389C28944680568876823
:1054A8003960226023602B600B99079A0BB211B206
:1054B80059434B461A8AFBF78FF9099C0D9F63885D
:1054C8002288089D0133FB185446521B99B2634247
:1054D80092B2059498B21D0400D54EE207900B9144
:1054E8000C9C002C00DA6EE20B9997B29046079A52
:1054F80089B28B18013BBC469BB25F449A46013F78
:105508004B465D68BFB206970E916B682A68A9681A
:10551800AC892A27ED890F601D601C601460404625
:1055280000B200120427086017601E601660FF2092
:10553800071C60460740BC460427381C67460F60B6
:1055480010601E6016600698042700B200120860FA
:1055580017601E601660FF20071C06980740BC46AF
:1055680060460427086017601E6016602B270F60CE
:105578001D601C6014600B9C25B22D1204240D6064
:1055880014601E6016600E98FF24204004240860F2
:1055980014601E60166055462CB2241204200C605C
:1055A80010601E601660FF2457463C400C60106077
:1055B8001E601660494608682C218389C2894468A0
:1055C800056887683960226023602B60079A59460E
:1055D8000BB211B259434B461A8AFBF7FDF80D9FDF
:1055E8000898049B039C169D01336419029D9BB285
:1055F800049303942B19189C199D109A64191B196C
:1056080018940A9C013A02340A94059C92B23D1BF4
:10561800ADB2AFB21092013039B212B2029380B279
:105628008C4601240592FFF7A5FA5B4601335846DC
:10563800D21843429BB292B20B939346FFF77AFB80
:105648000D9FC91B023189B20691FFF76BFB5A46C1
:1056580001325C469B18624292B29BB20C929B4606
:1056680001E6013179187F42BFB289B20D970791DF
:10567800F1E55A46013259469B184A4292B29BB20A
:1056880011929A46FFF7BBFA80180130524292B243
:1056980080B206920E90FFF7A8FA099DBFB22B8838
:1056A80008970D901B1A6888089DC01B6900013176
:1056B8000A9F89B28AB2BFB215B29BB280B2BB460A
:1056C800002D00DA88E1059207905F463AB2002A79
:1056D80000DA6EE159460C919A460C985746BFB2CB
:1056E800B846031C43440799059A013B89B29BB20B
:1056F8009C468B18013B9BB29B464B465F680691C4
:10570800BD897B680B953A68B9682A20FF890860CB
:105718001F601D60156055462DB22D1204200D60C6
:1057280010601E601660FF25281C454628408046EC
:105738000420051C4046086015601E60166065461A
:105748002DB22D1204200D6010601E601660FF251A
:10575800281C6546284084460420051C60460860CD
:1057680015601E6016602B250B980D601F60186071
:105778001060079D2FB23F1204250F6015601E6050
:1057880016600698FF2528400425086015601E60ED
:1057980016605F463DB22D1204200D6010601E6039
:1057A8001660FF255846054004200D6010601E60F5
:1057B80016604A4611682C278B465A468B89CD8934
:1057C8004868926809681760056003600B60059F68
:1057D8000C9D39B22BB24846028A59435846A4B2A6
:1057E800FAF7FAFF0594089F0D98FAE6099C01312B
:1057F800638849002288049E89B25D1B8BB2921B84
:1058080018B292B2ADB2002800DA99E0029303957B
:105818000C9F3BB2002B00DAE6E00497924603980F
:10582800029980B20590049E40185A4601385546A0
:10583800371C80B256680690ADB2AC46B48967444E
:105848000794013F73683268B168BFB2F6892A25A8
:105858000D601E601C60146004245046A146022599
:1058680000B22C1C00124D46086015601C601460C4
:10587800FF206546041C2C40A4460224251C042055
:1058880064460C6010601D601560022480463DB2BD
:10589800201C2D1244460D60146018601060FF250E
:1058A800281C3840251C0227086015601F601760F7
:1058B8002B2707980F601E6018601060039C042651
:1058C80027B23F1202250F6016601D601560059C07
:1058D800FF252C4002250C6016601D601560069D92
:1058E80002242EB2361204250E6015601C60146066
:1058F8000698FF2420400224086015601C6014608C
:105908005E4630682C218389C289476804688568A7
:1059180029603A603B602360049E029F33B239B22B
:1059280059435B461A8AFAF757FFFFF777FC0130AD
:105938001818594289B280B202918046FFF7F8FBE5
:1059480001354D19494289B2ADB2029103955FE71D
:10595800029FDB190133794289B29BB20F911093F0
:10596800FFF7A4FA0A9FBBB2D21801325B429BB27E
:1059780092B204939246FFF743FB059FC91B01317E
:1059880089B207970B91ABE55A46013258469B18E6
:10599800424292B29BB20B929846FFF714FD011C4B
:1059A80001315218414289B292B207910692FFF72B
:1059B80000FD5A4601325D469B186A4292B29BB27C
:1059C8000C929A4689E65B4601335D46D2186B42D3
:1059D8009BB29B4692B287E501300818494289B2CA
:1059E80080B20591079070E60A9CA3B2D2180132E2
:1059F8005B429BB292B20493924610E7029C013537
:105A08002D1BADB20395FFF7F3FA0A9FBBB2D2186C
:105A180001325B429BB292B212939246FFF750FA60
:105A28000120A5B20126002701240C960497031C27
:105A380080460A94FFF724FA109E0127B5B2002485
:105A480001260C970494331CB0460A97FFF718FAFE
:105A5800F0B55F4656464D464446F0B44068A7B098
:105A68001C9005E0C868229BC31A4868984218D25F
:105A78008B682293229C229B5B005B082293C86858
:105A8800229B984201D100F0D4FBC868229B98421F
:105A9800E8D84B682298CC68E3181B1A48689842E3
:105AA800E6D3072BE4D98B6824AC5B005B08201C89
:105AB80026AE0D68ED5C013305704D6801305D1B45
:105AC8006F1EBD416D422B40B042F2D180200006CE
